:020000040000FA
:02000000312E9F
:08000800C42E0030AA00AB0079
:10001000AD00AE00AF00B200080029082A020319A3
:100020001628290803191628FF30AB002908AA0052
:100030002C082D02031921282C0803192128FF3030
:10004000AE002C08AD002F0803193228013C03191B
:1000500049282F08023C031950282F08033C031994
:100060006E2890282E08031D39282B08031D3E28D2
:100070009B2837220130AF00B2289828372202305F
:10008000AF000030B2000830DE002030DD00252255
:1000900098282E08031D94282B08031D3E289B2812
:1000A0002E08031D57282B08031D60289B28D521E7
:1000B000D521B6215F0803194128B20A25229828C4
:1000C000D521B6216008B0005F08B1003008DE001D
:1000D0003108DD0025220330AF0098282E08031DCB
:1000E00075282B08031D7D289B28D521D521B621F5
:1000F0005F080319662825229828D521B6216008B3
:10010000031D94283208B3005F080E210830DE007A
:100110000430DD0025220430AF000330E1009828D0
:100120006108031D9B28312E0030AF003B22982828
:100130000030AE00AB00080000300121B4000130F7
:100140000121B50002300121B60003300121B700C2
:1001500004300121B80005300121B9000630012129
:10016000BA0008000830DE000030DD002522203013
:1001700068223408303E68222030682235082D3C41
:100180000319D1283508323C0319D62835084B3CD1
:100190000319DB2831306822303068223030682281
:1001A000E0283430682235306822E0283530682273
:1001B00030306822E0283730682235306822E02865
:1001C000203068223608FF3A031D2030523E682254
:1001D0003708FF3A031D20304C3E68223808FF3AAA
:1001E000031D2030443E68223908FF3A031D2030A9
:1001F000533E68223A08FF3A031D2030553E6822DC
:100200009828831203178D00831603178C130C1480
:10021000831203170C0883120313080083120317B9
:100220008C00831203133308831203178D00831687
:1002300003178B130C128C130C1555308D00AA303C
:100240008D008C148B170C118C1824298312031326
:10025000080094210130AD21B6215F08EB00013088
:10026000AD21B6215F08F0006B080800EE002530D4
:10027000DD000930DE00B6215F08ED000130AD2160
:10028000B6215F08EB000130AD21B6215F08EC001C
:100290006B08553C03196C296C08043C0319582958
:1002A0006B08423C031958296B086F02031D6C2927
:1002B0006C086E02031D6C296E081F3C0319662929
:1002C0006E081B3C031969296D0808004C30EF00CB
:1002D0001B344630EF001B340130AD213B29831223
:1002E0000317A301A40C0318A307A30CA40C031861
:1002F000A307A30CA40C0318A307A30CA40C0318B6
:10030000A307A30CA40C0318A307A30CA40C0318A5
:10031000A307A30CA40C0318A307A30CA40C031895
:10032000A307A30CA40C003483120317A40003300A
:100330006F218312031325308312031724078312BE
:100340000313DD0009300318013E00008312031778
:10035000230783120313DE000800EA005D086A0722
:10036000DD005E080318013EDE000800831203135F
:100370005E08831203178F00831203135D08831234
:1003800003178D00831603178C170C140000000050
:10039000831203170C0883120313DF008312031761
:1003A0000E0883120313E00008005D08013EDD0023
:1003B0005E080318013EDE00080083120317A00048
:1003C000E82183120317A00BE0298312031308000E
:1003D000831203170A30A100F42183120317A10B23
:1003E000EC29831203130800831203173230A20092
:1003F000A20BF82983120313080087120712283072
:10040000DD210330870007160000000007120530C9
:10041000DD21033087000716000000000712F421D9
:10042000033087000716000000000712F421023095
:1004300087000716000000000712F421283054221C
:1004400034224A223B22312208004A22B6215F0888
:1004500003192D2A6822D521262A08008038542223
:1004600008000C30542208000830542208000630DE
:1004700054224A220800073054224A221030DB005E
:100480002E220800DB0A28305B02031D492ADB000C
:100490002E220800013054220230DD2108000230F3
:1004A00054220230DD21080087018712DC005C0E37
:1004B0000F398704071600000712F42187018712FD
:1004C0005C080F398704071600000712F4210800A2
:1004D00087018716DC0021305C020318712A203066
:1004E000DC005C0E0F398704071600000712F421A8
:1004F000870187165C080F3987040716000007126A
:10050000F421080083160313980183120313980142
:10051000831603131811CF30990083120313981711
:10052000831603139816831203131816A201A4014D
:10053000B030A500A6000800A700250A0F39B03E7C
:10054000A80026060319AC2A250884002708800085
:100550002808A500270808000A30DE00CF30DD009B
:100560000530AF0037224F222522B52A260825065E
:100570000319C72A2408031DC72A26088400000877
:10058000A300FF30A400260A0F39B03EA6000800E1
:100590008C1ED22A18080639031DD32A1A08A10076
:1005A000FF30A20008000A30DE00C530DD00053053
:1005B000AF0037224F222522DC2A0C1EE62A24080F
:1005C0000319E62A230899000030A4000800D0018E
:1005D000CF010030D200A030D300D4004C30DA007C
:1005E000D90006111F30F822F8220030D800080088
:1005F000D500530A0F39A03ED60054060319082B24
:1006000053088400550880005608D3005508080098
:100610008B130A30DE00A530DD000530AF00372235
:100620004F222522122B540853060319252B8B1316
:100630005208031D252B540884000008D100FF3008
:10064000D200540A0F39A03ED4008B1708000330A3
:100650008A004F082E3E03188A0A8200432B572B2C
:10066000572B512B572B572B512B572B572B512B8C
:10067000572B572B512B572B572B512B572B572B76
:100680004E2B572B592B520803194B2B5108CD00D9
:100690000030D2004C2B08000615572B0611572BA3
:1006A000572BCD0C03180611031C0615572BCF0A28
:1006B0000800CF01080003308A005008623E03188A
:1006C0008A0A8200772B8A2B8A2B8A2B7A2B8A2BF9
:1006D0008A2B7A2B8A2B8A2B7A2B8A2B8A2B7A2BA2
:1006E0008A2B8A2B7A2B7F2B8A2B8A2B862B861A96
:1006F0008A2B08000310861E0314CE0C8A2BCE0C06
:10070000CE0CCE0C4E081F39D7008A2BFF30D800F4
:10071000D0010800D00A0800C901CA01BE01BD010C
:100720000030C200C030C300C40086104C30C50089
:10073000C6001F30C923C9230030C80008000310B9
:10074000061C0314C90C4A080319AB2B4A08013CC8
:100750000319B32BBD2B4908FF3C0319B02B08002C
:100760000130CA0008004908FF3C031DB82B0800EF
:100770005030E2000230CA0008004908FF3C03196B
:10078000C52B62080319C72B0800E201B02BCA0170
:100790000800CB00430A0F39C03ECC0044060319C1
:1007A000D92B430884004B0880004C08C3004B0839
:1007B00008008B130A30DE00B530DD000530AF00D5
:1007C00037224F222522E32B440843060319F62B38
:1007D0008B134208031DF62B440884000008C10057
:1007E000FF30C200440A0F39C03EC4008B17080016
:1007F00003308A003D08FF3E03188A0A8200142C49
:100800003E2C3E2C382C3E2C3E2C382C3E2C3E2CA4
:10081000382C3E2C3E2C382C3E2C3E2C382C3E2C9A
:100820003E2C302C3E2C402C420803191C2C00304E
:10083000C2004108BB00232C38080319222C1F30AA
:10084000BB00232C080036080319282CBB09282CD0
:1008500000003608031D2E2C86142F2C86103E2CEB
:100860003608031D352C86103E2C86143E2C3E2C5B
:10087000BB0C03188610031C86143E2CBD0A08000E
:10088000BD01080004308A003E08493E03188A0A68
:1008900082005E2C7C2C7C2C7C2C672C7C2C7C2C71
:1008A000672C7C2C7C2C672C7C2C7C2C672C7C2C47
:1008B0007C2C672C6C2C7C2C7C2C782C3608031D13
:1008C000642C061A7C2C0800061E7C2C08000310E1
:1008D000061E0314BC0C7C2CBC0CBC0CBC0C3608D7
:1008E000031D762C3C081F39C7007C2CBC09722CD8
:1008F000FF30C800BE010800BE0A080083160313BB
:1009000006309F00FF30850083120313E501651058
:10091000E5146515A001A901AC0186100615861124
:10092000831603138117F130860083120313C70166
:10093000D7010301870083160313C0308700831299
:10094000031308000508E4006708E606E7096408E1
:100950006506E705E605FF3A66046704FF3AE50623
:10096000E8006518B52C0030B62CFF30A000E51863
:10097000BB2CFF30BC2C0030A9006519C12CFF3006
:10098000C22C0030AC00080008003B222F08031DD9
:10099000EE2C34080319F02C013C0319102D3408F7
:1009A000023C0319562D3408033C0319D92D340891
:1009B000043C0319AC2D3408053C03195D2D3408A3
:1009C000063C0319C42DD92D0A30DE00D930DD00D4
:1009D0000530AF0037224F222522ED2C861108006A
:1009E00020080319F52C8615F62C861148080319E2
:1009F0000F2D20080319FE2C4708F8224608EF00A7
:100A000047083621E9001B3C03190B2D69086822B1
:100A1000422269089C226F08C6000030C800080006
:100A20002008031D3E2D390803191B2D4A08031900
:100A30001B2D86151C2D8611480803193D2D4708CE
:100A4000F8223A0803192C2D4708043C03192C2DD1
:100A50001F30F8224C30C6004608EF004708362108
:100A6000E9001B3C0319392D6908682242226908F4
:100A70009C226F08C6000030C80008008615580880
:100A80000319552D5708C9235908EF005708362177
:100A9000E9001B3C0319512D6908682242226908AC
:100AA0009C226F08D9000030D80008002008031DE0
:100AB0005B2D602508007F25080060257F25080044
:100AC0008611480803197E2D4608EF004708362195
:100AD000E9001B3C0319712D69086822422269084C
:100AE0009C226F08C6003A0803197C2D4708043C75
:100AF00003197C2D4C30C6000030C8000800861158
:100B000022080319AB2D210868224222210829213D
:100B1000E900553C0319A92D6908423C03199D2D94
:100B20006908450203199D2D6908C5004C3C03194D
:100B30009B2D1B309C2D1F30C92337080319A62D70
:100B40007008083C031DA62D0230C9237008C92374
:100B500000000030A2000800861558080319C32DB4
:100B60005708F8225908EF0057083621E9001B3CC6
:100B70000319BF2D69086822422269089C226F0868
:100B8000D9000030D8000800861122080319D82D9A
:100B900021086822422237080319D42D21080D3C70
:100BA000031DD42D0A309C2221089C220030A20073
:100BB000080020080319F22D861558080319F12D95
:100BC0005908EF0057083621E9001B3C0319ED2DA9
:100BD00069086822422269089C226F08D900003007
:100BE000D80008008615220803191E2E2108682245
:100BF000422221082921E900553C03191C2E6908CD
:100C0000423C0319102E69085A020319102E690874
:100C1000DA004C3C03190E2E1B300F2E1F30F82229
:100C200037080319192E7008083C031D192E0230CD
:100C3000F8227008F82200000030A20008001C30E2
:100C4000E3000030E100080062080319282EE203E7
:100C5000E30B302E1C30E30061080319302EE10352
:100C6000080000006400831203138B018316031332
:100C70008C01831203138C019C20A52637224F225E
:100C80000830DE001530DD002522FF30DD21FF3089
:100C9000DD21FF30DD21FF30DD213B220A309200D3
:100CA00083160313D0309200831203130030910097
:100CB00035082D3C0319652E3508323C03196E2E7C
:100CC00035084B3C0319772E802E00309000E3301E
:100CD000BF008F005930C0008E00892E0030900078
:100CE000E530BF008F00F530C0008E00892E003047
:100CF0009000EE30BF008F00A330C0008E00892E20
:100D000000309000F230BF008F00FA30C0008E003B
:100D1000892E8316031364008111011081140115BB
:100D20008112831203133E3081000B118B120C10C1
:100D30008C10831603130C148C14831203130B17DB
:100D40008B1710141215AE26A42E7E241F26822285
:100D5000FD210520E7228C23C5240800C8220D2090
:100D6000C6241323B622E423DD22B726AE2E831237
:100D700003130B1D08003E3081000B11A2249F239A
:100D8000C424242664000800FB00030EFC00831228
:100D900003130A08FD000C08FE000D08FF008C1C60
:100DA000D42E8C105B2327230C1CDF2E0C1010106C
:100DB0003F088F0040088E0010144224F82383124D
:100DC00003137D088A007C0E8300FB0E7B0E090056
:1010000031002E00300000004900740065006D00C2
:10101000200053006500740020005200650073003A
:10102000740061007200740000004D003000470041
:1010300042005000200052005400540059000000AB
:101040004D006F00640065003E0000005F08420034
:101050006100750064003E000000B30852006500A6
:10106000760065007200730065003E000000D00845
:101070004100750074006F004C0046003E00000007
:10108000E10844006900640064006C0065007300BE
:101090003E000000F2084100750074006F0073000C
:1010A00074006100720074003E00000003095500E6
:1010B00053004F0053003E00000014090000570089
:1010C00065006100740068006500720000000000A7
:1010D00054005500200074006F002000430072008F
:1010E0006500650064000000010054005500200008
:1010F00074006F0020005000430000000200500008
:101100004300200074006F0020004300720065005F
:101110006500640000000300430072006500650084
:10112000640020004C006F006F007000000004009D
:101130005400550020004C006F006F00700000004C
:1011400005005000430020004C006F006F0070004D
:1011500000000600430061006E00630065006C0043
:10116000000000010000340035002E00340035007E
:1011700000002D003500300000003200370035003F
:1011800000004B00310030003000000064004300DC
:1011900061006E00630065006C000000000100004B
:1011A0004F006E000000FF004F0066006600000068
:1011B0000000430061006E00630065006C000000E9
:1011C00000014F006E000000FF004F006600660047
:1011D00000000000430061006E00630065006C00C9
:1011E000000000014F006E000000FF004F0066008D
:1011F000660000000000430061006E0063006500AF
:101200006C00000000014F006E000000FF004F0066
:101210006600660000000000430061006E0063008D
:1012200065006C00000000014F006E000000FF0030
:101230004F006600660000000000430061006E0081
:10124000630065006C000000000100004200000027
:101250000100550000000200550000000300550089
:1012600000000400550000000500550000000600C5
:101270005500000007005500000008005500000060
:101280000900550000000A00420002000B00550052
:1012900000000C00550000000D00420008000E0088
:1012A000550000000F005500000010005500000020
:1012B00011005500000012005500000013005500F9
:1012C0000000140055000000150055000000160035
:1012D00055000000170055000000180055000000E0
:1012E0001900550000001A00550000001B004200C4
:1012F0001B001C00550000001D00550000001E00D2
:10130000550000001F0042001F0020004C00040098
:101310002100550000002200550000002300460077
:101320000900240046001400250046000D00260098
:1013300055000000270046000500280046000F0069
:101340002900460012002A00550000002B0046002C
:1013500011002C0046000C002D00460003002E005A
:1013600046001C002F0046001D00300046001600FD
:1013700031004600170032004600130033004600DB
:101380000100340046000A00350046001000360017
:1013900046001500370046000700380046000600EA
:1013A0003900460018003A0046000E003B00550088
:1013B00000003C00550000003D0046001E003E00BD
:1013C000550000003F0046001900400046001A008A
:1013D00041004C00030042004C00190043004C0047
:1013E0000E0044004C00090045004C00010046007E
:1013F0004C000D0047004C001A0048004C0014003F
:1014000049004C0006004A004C000B004B004C0009
:101410000F004C004C0012004D004C001C004E0010
:101420004C000C004F004C00180050004C001600FF
:1014300051004C00170052004C000A0053004C00B1
:10144000050054004C00100055004C0007005600E9
:101450004C001E0057004C00130058004C001D00AB
:1014600059004C0015005A004C0011005B0055005B
:1014700000005C00550000005D00550000005E00AB
:1014800046000B005F0055000000600055000000A2
:1014900061004C00030062004C00190063004C0026
:1014A0000E0064004C00090065004C00010066005D
:1014B0004C000D0067004C001A0068004C0014003E
:1014C00069004C0006006A004C000B006B004C00E9
:1014D0000F006C004C0012006D004C001C006E00F0
:1014E0004C000C006F004C00180070004C001600FF
:1014F00071004C00170072004C000A0073004C0091
:10150000050074004C00100075004C0007007600C8
:101510004C001E0077004C00130078004C001D00AA
:1015200079004C0015007A004C0011007B0055003A
:1015300000007C00550000007D00550000007E008A
:10154000550000007F005500000045007200720049
:101550003A004300720065006500640020005000FE
:10156000720069006E007400000045007200720095
:101570003A005400550020004D006F0064007500D3
:101580006C0061007400650000004500720072008C
:101590003A0050004300200052007800000045004F
:1015A000720072003A00500043002000540078009E
:1015B00000004500720072003A004D006F006400A8
:0415C00065000000C2
:02400E00393F38
:0E420000000032000000FF000000000000007F
:00000001FF
